{"contracts/proxy/ClaimTopicsRegistryProxy.sol":{"ClaimTopicsRegistryProxy":{"abi":[{"inputs":[{"internalType":"address","name":"implementationAuthority","type":"address"}],"stateMutability":"nonpayable","type":"constructor"},{"anonymous":false,"inputs":[{"indexed":true,"internalType":"address","name":"_implementationAuthority","type":"address"}],"name":"ImplementationAuthoritySet","type":"event"},{"anonymous":false,"inputs":[{"indexed":false,"internalType":"uint8","name":"version","type":"uint8"}],"name":"Initialized","type":"event"},{"stateMutability":"payable","type":"fallback"},{"inputs":[],"name":"getImplementationAuthority","outputs":[{"internalType":"address","name":"","type":"address"}],"stateMutability":"view","type":"function"},{"inputs":[{"internalType":"address","name":"_newImplementationAuthority","type":"address"}],"name":"setImplementationAuthority","outputs":[],"stateMutability":"nonpayable","type":"function"}],"devdoc":{"kind":"dev","methods":{"getImplementationAuthority()":{"details":"See {IProxy-getImplementationAuthority}."},"setImplementationAuthority(address)":{"details":"See {IProxy-setImplementationAuthority}."}},"version":1},"evm":{"bytecode":{"linkReferences":{},"object":"608060405234801561001057600080fd5b506040516108fc3803806108fc83398101604081905261002f9161022a565b6001600160a01b03811661008a5760405162461bcd60e51b815260206004820152601f60248201527f696e76616c696420617267756d656e74202d207a65726f20616464726573730060448201526064015b60405180910390fd5b6100a0816000805160206108dc83398151915255565b6040516001600160a01b038216907f3b1074392ed8e8424715d0dda2197eede67080b377fc8370e26f3e882207f6b890600090a260006100ec6000805160206108dc8339815191525490565b6001600160a01b0316636ff6e83f6040518163ffffffff1660e01b8152600401602060405180830381865afa158015610129573d6000803e3d6000fd5b505050506040513d601f19601f8201168201806040525081019061014d919061022a565b60408051600481526024810182526020810180516001600160e01b03166370e39c9560e11b17905290519192506000916001600160a01b038416916101919161025a565b600060405180830381855af49150503d80600081146101cc576040519150601f19603f3d011682016040523d82523d6000602084013e6101d1565b606091505b50509050806102225760405162461bcd60e51b815260206004820152601660248201527f496e697469616c697a6174696f6e206661696c65642e000000000000000000006044820152606401610081565b505050610289565b60006020828403121561023c57600080fd5b81516001600160a01b038116811461025357600080fd5b9392505050565b6000825160005b8181101561027b5760208186018101518583015201610261565b506000920191825250919050565b610644806102986000396000f3fe6080604052600436106100295760003560e01c80632d5f1187146100cf57806392dd9d6514610108575b60006100416000805160206105ef8339815191525490565b6001600160a01b0316636ff6e83f6040518163ffffffff1660e01b8152600401602060405180830381865afa15801561007e573d6000803e3d6000fd5b505050506040513d601f19601f820116820180604052508101906100a291906105ad565b90503660008037600080366000846127105a03f43d806000803e8180156100c857816000f35b816000fd5b005b3480156100db57600080fd5b506000805160206105ef833981519152546040516001600160a01b03909116815260200160405180910390f35b34801561011457600080fd5b506100cd6101233660046105d1565b6000805160206105ef833981519152546001600160a01b0316336001600160a01b0316146101ae5760405162461bcd60e51b815260206004820152602d60248201527f6f6e6c792063757272656e7420696d706c656d656e746174696f6e417574686f60448201526c1c9a5d1e4818d85b8818d85b1b609a1b60648201526084015b60405180910390fd5b6001600160a01b0381166102045760405162461bcd60e51b815260206004820152601f60248201527f696e76616c696420617267756d656e74202d207a65726f20616464726573730060448201526064016101a5565b60006001600160a01b0316816001600160a01b031663709bc7f36040518163ffffffff1660e01b8152600401602060405180830381865afa15801561024d573d6000803e3d6000fd5b505050506040513d601f19601f8201168201806040525081019061027191906105ad565b6001600160a01b0316141580156102fc575060006001600160a01b0316816001600160a01b0316636ff6e83f6040518163ffffffff1660e01b8152600401602060405180830381865afa1580156102cc573d6000803e3d6000fd5b505050506040513d601f19601f820116820180604052508101906102f091906105ad565b6001600160a01b031614155b801561037c575060006001600160a01b0316816001600160a01b0316631ee9ce8b6040518163ffffffff1660e01b8152600401602060405180830381865afa15801561034c573d6000803e3d6000fd5b505050506040513d601f19601f8201168201806040525081019061037091906105ad565b6001600160a01b031614155b80156103fc575060006001600160a01b0316816001600160a01b0316639e3e7bb96040518163ffffffff1660e01b8152600401602060405180830381865afa1580156103cc573d6000803e3d6000fd5b505050506040513d601f19601f820116820180604052508101906103f091906105ad565b6001600160a01b031614155b801561047c575060006001600160a01b0316816001600160a01b03166361f898256040518163ffffffff1660e01b8152600401602060405180830381865afa15801561044c573d6000803e3d6000fd5b505050506040513d601f19601f8201168201806040525081019061047091906105ad565b6001600160a01b031614155b80156104fc575060006001600160a01b0316816001600160a01b031663fedcc0526040518163ffffffff1660e01b8152600401602060405180830381865afa1580156104cc573d6000803e3d6000fd5b505050506040513d601f19601f820116820180604052508101906104f091906105ad565b6001600160a01b031614155b6105485760405162461bcd60e51b815260206004820181905260248201527f696e76616c696420496d706c656d656e746174696f6e20417574686f7269747960448201526064016101a5565b61055e816000805160206105ef83398151915255565b6040516001600160a01b038216907f3b1074392ed8e8424715d0dda2197eede67080b377fc8370e26f3e882207f6b890600090a250565b6001600160a01b03811681146105aa57600080fd5b50565b6000602082840312156105bf57600080fd5b81516105ca81610595565b9392505050565b6000602082840312156105e357600080fd5b81356105ca8161059556fec5f16f0fcc639fa48a6947836d9850f504798523bf8c9a3a87d5876cf622bcf7a26469706673582212208c72b87057ae8005e69933268b47ca1cf329950da4118915875d9c5c9781aef864736f6c63430008110033c5f16f0fcc639fa48a6947836d9850f504798523bf8c9a3a87d5876cf622bcf7","opcodes":"PUSH1 0x80 PUSH1 0x40 MSTORE CALLVALUE DUP1 ISZERO PUSH2 0x10 JUMPI PUSH1 0x0 DUP1 REVERT JUMPDEST POP PUSH1 0x40 MLOAD PUSH2 0x8FC CODESIZE SUB DUP1 PUSH2 0x8FC DUP4 CODECOPY DUP2 ADD PUSH1 0x40 DUP2 SWAP1 MSTORE PUSH2 0x2F SWAP2 PUSH2 0x22A JUMP JUMPDEST PUSH1 0x1 PUSH1 0x1 PUSH1 0xA0 SHL SUB DUP2 AND PUSH2 0x8A JUMPI PUSH1 0x40 MLOAD PUSH3 0x461BCD PUSH1 0xE5 SHL DUP2 MSTORE PUSH1 0x20 PUSH1 0x4 DUP3 ADD MSTORE PUSH1 0x1F PUSH1 0x24 DUP3 ADD MSTORE PUSH32 0x696E76616C696420617267756D656E74202D207A65726F206164647265737300 PUSH1 0x44 DUP3 ADD MSTORE PUSH1 0x64 ADD JUMPDEST PUSH1 0x40 MLOAD DUP1 SWAP2 SUB SWAP1 REVERT JUMPDEST PUSH2 0xA0 DUP2 PUSH1 0x0 DUP1 MLOAD PUSH1 0x20 PUSH2 0x8DC DUP4 CODECOPY DUP2 MLOAD SWAP2 MSTORE SSTORE JUMP JUMPDEST PUSH1 0x40 MLOAD PUSH1 0x1 PUSH1 0x1 PUSH1 0xA0 SHL SUB DUP3 AND SWAP1 PUSH32 0x3B1074392ED8E8424715D0DDA2197EEDE67080B377FC8370E26F3E882207F6B8 SWAP1 PUSH1 0x0 SWAP1 LOG2 PUSH1 0x0 PUSH2 0xEC PUSH1 0x0 DUP1 MLOAD PUSH1 0x20 PUSH2 0x8DC DUP4 CODECOPY DUP2 MLOAD SWAP2 MSTORE SLOAD SWAP1 JUMP JUMPDEST PUSH1 0x1 PUSH1 0x1 PUSH1 0xA0 SHL SUB AND PUSH4 0x6FF6E83F PUSH1 0x40 MLOAD DUP2 PUSH4 0xFFFFFFFF AND PUSH1 0xE0 SHL DUP2 MSTORE PUSH1 0x4 ADD PUSH1 0x20 PUSH1 0x40 MLOAD DUP1 DUP4 SUB DUP2 DUP7 GAS STATICCALL ISZERO DUP1 ISZERO PUSH2 0x129 JUMPI RETURNDATASIZE PUSH1 0x0 DUP1 RETURNDATACOPY RETURNDATASIZE PUSH1 0x0 REVERT JUMPDEST POP POP POP POP PUSH1 0x40 MLOAD RETURNDATASIZE PUSH1 0x1F NOT PUSH1 0x1F DUP3 ADD AND DUP3 ADD DUP1 PUSH1 0x40 MSTORE POP DUP2 ADD SWAP1 PUSH2 0x14D SWAP2 SWAP1 PUSH2 0x22A JUMP JUMPDEST PUSH1 0x40 DUP1 MLOAD PUSH1 0x4 DUP2 MSTORE PUSH1 0x24 DUP2 ADD DUP3 MSTORE PUSH1 0x20 DUP2 ADD DUP1 MLOAD PUSH1 0x1 PUSH1 0x1 PUSH1 0xE0 SHL SUB AND PUSH4 0x70E39C95 PUSH1 0xE1 SHL OR SWAP1 MSTORE SWAP1 MLOAD SWAP2 SWAP3 POP PUSH1 0x0 SWAP2 PUSH1 0x1 PUSH1 0x1 PUSH1 0xA0 SHL SUB DUP5 AND SWAP2 PUSH2 0x191 SWAP2 PUSH2 0x25A JUMP JUMPDEST PUSH1 0x0 PUSH1 0x40 MLOAD DUP1 DUP4 SUB DUP2 DUP6 GAS DELEGATECALL SWAP2 POP POP RETURNDATASIZE DUP1 PUSH1 0x0 DUP2 EQ PUSH2 0x1CC JUMPI PUSH1 0x40 MLOAD SWAP2 POP PUSH1 0x1F NOT PUSH1 0x3F RETURNDATASIZE ADD AND DUP3 ADD PUSH1 0x40 MSTORE RETURNDATASIZE DUP3 MSTORE RETURNDATASIZE PUSH1 0x0 PUSH1 0x20 DUP5 ADD RETURNDATACOPY PUSH2 0x1D1 JUMP JUMPDEST PUSH1 0x60 SWAP2 POP JUMPDEST POP POP SWAP1 POP DUP1 PUSH2 0x222 JUMPI PUSH1 0x40 MLOAD PUSH3 0x461BCD PUSH1 0xE5 SHL DUP2 MSTORE PUSH1 0x20 PUSH1 0x4 DUP3 ADD MSTORE PUSH1 0x16 PUSH1 0x24 DUP3 ADD MSTORE PUSH32 0x496E697469616C697A6174696F6E206661696C65642E00000000000000000000 PUSH1 0x44 DUP3 ADD MSTORE PUSH1 0x64 ADD PUSH2 0x81 JUMP JUMPDEST POP POP POP PUSH2 0x289 JUMP JUMPDEST PUSH1 0x0 PUSH1 0x20 DUP3 DUP5 SUB SLT ISZERO PUSH2 0x23C JUMPI PUSH1 0x0 DUP1 REVERT JUMPDEST DUP2 MLOAD PUSH1 0x1 PUSH1 0x1 PUSH1 0xA0 SHL SUB DUP2 AND DUP2 EQ PUSH2 0x253 JUMPI PUSH1 0x0 DUP1 REVERT JUMPDEST SWAP4 SWAP3 POP POP POP JUMP JUMPDEST PUSH1 0x0 DUP3 MLOAD PUSH1 0x0 JUMPDEST DUP2 DUP2 LT ISZERO PUSH2 0x27B JUMPI PUSH1 0x20 DUP2 DUP7 ADD DUP2 ADD MLOAD DUP6 DUP4 ADD MSTORE ADD PUSH2 0x261 JUMP JUMPDEST POP PUSH1 0x0 SWAP3 ADD SWAP2 DUP3 MSTORE POP SWAP2 SWAP1 POP JUMP JUMPDEST PUSH2 0x644 DUP1 PUSH2 0x298 PUSH1 0x0 CODECOPY PUSH1 0x0 RETURN INVALID PUSH1 0x80 PUSH1 0x40 MSTORE PUSH1 0x4 CALLDATASIZE LT PUSH2 0x29 JUMPI PUSH1 0x0 CALLDATALOAD PUSH1 0xE0 SHR DUP1 PUSH4 0x2D5F1187 EQ PUSH2 0xCF JUMPI DUP1 PUSH4 0x92DD9D65 EQ PUSH2 0x108 JUMPI JUMPDEST PUSH1 0x0 PUSH2 0x41 PUSH1 0x0 DUP1 MLOAD PUSH1 0x20 PUSH2 0x5EF DUP4 CODECOPY DUP2 MLOAD SWAP2 MSTORE SLOAD SWAP1 JUMP JUMPDEST PUSH1 0x1 PUSH1 0x1 PUSH1 0xA0 SHL SUB AND PUSH4 0x6FF6E83F PUSH1 0x40 MLOAD DUP2 PUSH4 0xFFFFFFFF AND PUSH1 0xE0 SHL DUP2 MSTORE PUSH1 0x4 ADD PUSH1 0x20 PUSH1 0x40 MLOAD DUP1 DUP4 SUB DUP2 DUP7 GAS STATICCALL ISZERO DUP1 ISZERO PUSH2 0x7E JUMPI RETURNDATASIZE PUSH1 0x0 DUP1 RETURNDATACOPY RETURNDATASIZE PUSH1 0x0 REVERT JUMPDEST POP POP POP POP PUSH1 0x40 MLOAD RETURNDATASIZE PUSH1 0x1F NOT PUSH1 0x1F DUP3 ADD AND DUP3 ADD DUP1 PUSH1 0x40 MSTORE POP DUP2 ADD SWAP1 PUSH2 0xA2 SWAP2 SWAP1 PUSH2 0x5AD JUMP JUMPDEST SWAP1 POP CALLDATASIZE PUSH1 0x0 DUP1 CALLDATACOPY PUSH1 0x0 DUP1 CALLDATASIZE PUSH1 0x0 DUP5 PUSH2 0x2710 GAS SUB DELEGATECALL RETURNDATASIZE DUP1 PUSH1 0x0 DUP1 RETURNDATACOPY DUP2 DUP1 ISZERO PUSH2 0xC8 JUMPI DUP2 PUSH1 0x0 RETURN JUMPDEST DUP2 PUSH1 0x0 REVERT JUMPDEST STOP JUMPDEST CALLVALUE DUP1 ISZERO PUSH2 0xDB JUMPI PUSH1 0x0 DUP1 REVERT JUMPDEST POP PUSH1 0x0 DUP1 MLOAD PUSH1 0x20 PUSH2 0x5EF DUP4 CODECOPY DUP2 MLOAD SWAP2 MSTORE SLOAD PUSH1 0x40 MLOAD PUSH1 0x1 PUSH1 0x1 PUSH1 0xA0 SHL SUB SWAP1 SWAP2 AND DUP2 MSTORE PUSH1 0x20 ADD PUSH1 0x40 MLOAD DUP1 SWAP2 SUB SWAP1 RETURN JUMPDEST CALLVALUE DUP1 ISZERO PUSH2 0x114 JUMPI PUSH1 0x0 DUP1 REVERT JUMPDEST POP PUSH2 0xCD PUSH2 0x123 CALLDATASIZE PUSH1 0x4 PUSH2 0x5D1 JUMP JUMPDEST PUSH1 0x0 DUP1 MLOAD PUSH1 0x20 PUSH2 0x5EF DUP4 CODECOPY DUP2 MLOAD SWAP2 MSTORE SLOAD PUSH1 0x1 PUSH1 0x1 PUSH1 0xA0 SHL SUB AND CALLER PUSH1 0x1 PUSH1 0x1 PUSH1 0xA0 SHL SUB AND EQ PUSH2 0x1AE JUMPI PUSH1 0x40 MLOAD PUSH3 0x461BCD PUSH1 0xE5 SHL DUP2 MSTORE PUSH1 0x20 PUSH1 0x4 DUP3 ADD MSTORE PUSH1 0x2D PUSH1 0x24 DUP3 ADD MSTORE PUSH32 0x6F6E6C792063757272656E7420696D706C656D656E746174696F6E417574686F PUSH1 0x44 DUP3 ADD MSTORE PUSH13 0x1C9A5D1E4818D85B8818D85B1B PUSH1 0x9A SHL PUSH1 0x64 DUP3 ADD MSTORE PUSH1 0x84 ADD JUMPDEST PUSH1 0x40 MLOAD DUP1 SWAP2 SUB SWAP1 REVERT JUMPDEST PUSH1 0x1 PUSH1 0x1 PUSH1 0xA0 SHL SUB DUP2 AND PUSH2 0x204 JUMPI PUSH1 0x40 MLOAD PUSH3 0x461BCD PUSH1 0xE5 SHL DUP2 MSTORE PUSH1 0x20 PUSH1 0x4 DUP3 ADD MSTORE PUSH1 0x1F PUSH1 0x24 DUP3 ADD MSTORE PUSH32 0x696E76616C696420617267756D656E74202D207A65726F206164647265737300 PUSH1 0x44 DUP3 ADD MSTORE PUSH1 0x64 ADD PUSH2 0x1A5 JUMP JUMPDEST PUSH1 0x0 PUSH1 0x1 PUSH1 0x1 PUSH1 0xA0 SHL SUB AND DUP2 PUSH1 0x1 PUSH1 0x1 PUSH1 0xA0 SHL SUB AND PUSH4 0x709BC7F3 PUSH1 0x40 MLOAD DUP2 PUSH4 0xFFFFFFFF AND PUSH1 0xE0 SHL DUP2 MSTORE PUSH1 0x4 ADD PUSH1 0x20 PUSH1 0x40 MLOAD DUP1 DUP4 SUB DUP2 DUP7 GAS STATICCALL ISZERO DUP1 ISZERO PUSH2 0x24D JUMPI RETURNDATASIZE PUSH1 0x0 DUP1 RETURNDATACOPY RETURNDATASIZE PUSH1 0x0 REVERT JUMPDEST POP POP POP POP PUSH1 0x40 MLOAD RETURNDATASIZE PUSH1 0x1F NOT PUSH1 0x1F DUP3 ADD AND DUP3 ADD DUP1 PUSH1 0x40 MSTORE POP DUP2 ADD SWAP1 PUSH2 0x271 SWAP2 SWAP1 PUSH2 0x5AD JUMP JUMPDEST PUSH1 0x1 PUSH1 0x1 PUSH1 0xA0 SHL SUB AND EQ ISZERO DUP1 ISZERO PUSH2 0x2FC JUMPI POP PUSH1 0x0 PUSH1 0x1 PUSH1 0x1 PUSH1 0xA0 SHL SUB AND DUP2 PUSH1 0x1 PUSH1 0x1 PUSH1 0xA0 SHL SUB AND PUSH4 0x6FF6E83F PUSH1 0x40 MLOAD DUP2 PUSH4 0xFFFFFFFF AND PUSH1 0xE0 SHL DUP2 MSTORE PUSH1 0x4 ADD PUSH1 0x20 PUSH1 0x40 MLOAD DUP1 DUP4 SUB DUP2 DUP7 GAS STATICCALL ISZERO DUP1 ISZERO PUSH2 0x2CC JUMPI RETURNDATASIZE PUSH1 0x0 DUP1 RETURNDATACOPY RETURNDATASIZE PUSH1 0x0 REVERT JUMPDEST POP POP POP POP PUSH1 0x40 MLOAD RETURNDATASIZE PUSH1 0x1F NOT PUSH1 0x1F DUP3 ADD AND DUP3 ADD DUP1 PUSH1 0x40 MSTORE POP DUP2 ADD SWAP1 PUSH2 0x2F0 SWAP2 SWAP1 PUSH2 0x5AD JUMP JUMPDEST PUSH1 0x1 PUSH1 0x1 PUSH1 0xA0 SHL SUB AND EQ ISZERO JUMPDEST DUP1 ISZERO PUSH2 0x37C JUMPI POP PUSH1 0x0 PUSH1 0x1 PUSH1 0x1 PUSH1 0xA0 SHL SUB AND DUP2 PUSH1 0x1 PUSH1 0x1 PUSH1 0xA0 SHL SUB AND PUSH4 0x1EE9CE8B PUSH1 0x40 MLOAD DUP2 PUSH4 0xFFFFFFFF AND PUSH1 0xE0 SHL DUP2 MSTORE PUSH1 0x4 ADD PUSH1 0x20 PUSH1 0x40 MLOAD DUP1 DUP4 SUB DUP2 DUP7 GAS STATICCALL ISZERO DUP1 ISZERO PUSH2 0x34C JUMPI RETURNDATASIZE PUSH1 0x0 DUP1 RETURNDATACOPY RETURNDATASIZE PUSH1 0x0 REVERT JUMPDEST POP POP POP POP PUSH1 0x40 MLOAD RETURNDATASIZE PUSH1 0x1F NOT PUSH1 0x1F DUP3 ADD AND DUP3 ADD DUP1 PUSH1 0x40 MSTORE POP DUP2 ADD SWAP1 PUSH2 0x370 SWAP2 SWAP1 PUSH2 0x5AD JUMP JUMPDEST PUSH1 0x1 PUSH1 0x1 PUSH1 0xA0 SHL SUB AND EQ ISZERO JUMPDEST DUP1 ISZERO PUSH2 0x3FC JUMPI POP PUSH1 0x0 PUSH1 0x1 PUSH1 0x1 PUSH1 0xA0 SHL SUB AND DUP2 PUSH1 0x1 PUSH1 0x1 PUSH1 0xA0 SHL SUB AND PUSH4 0x9E3E7BB9 PUSH1 0x40 MLOAD DUP2 PUSH4 0xFFFFFFFF AND PUSH1 0xE0 SHL DUP2 MSTORE PUSH1 0x4 ADD PUSH1 0x20 PUSH1 0x40 MLOAD DUP1 DUP4 SUB DUP2 DUP7 GAS STATICCALL ISZERO DUP1 ISZERO PUSH2 0x3CC JUMPI RETURNDATASIZE PUSH1 0x0 DUP1 RETURNDATACOPY RETURNDATASIZE PUSH1 0x0 REVERT JUMPDEST POP POP POP POP PUSH1 0x40 MLOAD RETURNDATASIZE PUSH1 0x1F NOT PUSH1 0x1F DUP3 ADD AND DUP3 ADD DUP1 PUSH1 0x40 MSTORE POP DUP2 ADD SWAP1 PUSH2 0x3F0 SWAP2 SWAP1 PUSH2 0x5AD JUMP JUMPDEST PUSH1 0x1 PUSH1 0x1 PUSH1 0xA0 SHL SUB AND EQ ISZERO JUMPDEST DUP1 ISZERO PUSH2 0x47C JUMPI POP PUSH1 0x0 PUSH1 0x1 PUSH1 0x1 PUSH1 0xA0 SHL SUB AND DUP2 PUSH1 0x1 PUSH1 0x1 PUSH1 0xA0 SHL SUB AND PUSH4 0x61F89825 PUSH1 0x40 MLOAD DUP2 PUSH4 0xFFFFFFFF AND PUSH1 0xE0 SHL DUP2 MSTORE PUSH1 0x4 ADD PUSH1 0x20 PUSH1 0x40 MLOAD DUP1 DUP4 SUB DUP2 DUP7 GAS STATICCALL ISZERO DUP1 ISZERO PUSH2 0x44C JUMPI RETURNDATASIZE PUSH1 0x0 DUP1 RETURNDATACOPY RETURNDATASIZE PUSH1 0x0 REVERT JUMPDEST POP POP POP POP PUSH1 0x40 MLOAD RETURNDATASIZE PUSH1 0x1F NOT PUSH1 0x1F DUP3 ADD AND DUP3 ADD DUP1 PUSH1 0x40 MSTORE POP DUP2 ADD SWAP1 PUSH2 0x470 SWAP2 SWAP1 PUSH2 0x5AD JUMP JUMPDEST PUSH1 0x1 PUSH1 0x1 PUSH1 0xA0 SHL SUB AND EQ ISZERO JUMPDEST DUP1 ISZERO PUSH2 0x4FC JUMPI POP PUSH1 0x0 PUSH1 0x1 PUSH1 0x1 PUSH1 0xA0 SHL SUB AND DUP2 PUSH1 0x1 PUSH1 0x1 PUSH1 0xA0 SHL SUB AND PUSH4 0xFEDCC052 PUSH1 0x40 MLOAD DUP2 PUSH4 0xFFFFFFFF AND PUSH1 0xE0 SHL DUP2 MSTORE PUSH1 0x4 ADD PUSH1 0x20 PUSH1 0x40 MLOAD DUP1 DUP4 SUB DUP2 DUP7 GAS STATICCALL ISZERO DUP1 ISZERO PUSH2 0x4CC JUMPI RETURNDATASIZE PUSH1 0x0 DUP1 RETURNDATACOPY RETURNDATASIZE PUSH1 0x0 REVERT JUMPDEST POP POP POP POP PUSH1 0x40 MLOAD RETURNDATASIZE PUSH1 0x1F NOT PUSH1 0x1F DUP3 ADD AND DUP3 ADD DUP1 PUSH1 0x40 MSTORE POP DUP2 ADD SWAP1 PUSH2 0x4F0 SWAP2 SWAP1 PUSH2 0x5AD JUMP JUMPDEST PUSH1 0x1 PUSH1 0x1 PUSH1 0xA0 SHL SUB AND EQ ISZERO JUMPDEST PUSH2 0x548 JUMPI PUSH1 0x40 MLOAD PUSH3 0x461BCD PUSH1 0xE5 SHL DUP2 MSTORE PUSH1 0x20 PUSH1 0x4 DUP3 ADD DUP2 SWAP1 MSTORE PUSH1 0x24 DUP3 ADD MSTORE PUSH32 0x696E76616C696420496D706C656D656E746174696F6E20417574686F72697479 PUSH1 0x44 DUP3 ADD MSTORE PUSH1 0x64 ADD PUSH2 0x1A5 JUMP JUMPDEST PUSH2 0x55E DUP2 PUSH1 0x0 DUP1 MLOAD PUSH1 0x20 PUSH2 0x5EF DUP4 CODECOPY DUP2 MLOAD SWAP2 MSTORE SSTORE JUMP JUMPDEST PUSH1 0x40 MLOAD PUSH1 0x1 PUSH1 0x1 PUSH1 0xA0 SHL SUB DUP3 AND SWAP1 PUSH32 0x3B1074392ED8E8424715D0DDA2197EEDE67080B377FC8370E26F3E882207F6B8 SWAP1 PUSH1 0x0 SWAP1 LOG2 POP JUMP JUMPDEST PUSH1 0x1 PUSH1 0x1 PUSH1 0xA0 SHL SUB DUP2 AND DUP2 EQ PUSH2 0x5AA JUMPI PUSH1 0x0 DUP1 REVERT JUMPDEST POP JUMP JUMPDEST PUSH1 0x0 PUSH1 0x20 DUP3 DUP5 SUB SLT ISZERO PUSH2 0x5BF JUMPI PUSH1 0x0 DUP1 REVERT JUMPDEST DUP2 MLOAD PUSH2 0x5CA DUP2 PUSH2 0x595 JUMP JUMPDEST SWAP4 SWAP3 POP POP POP JUMP JUMPDEST PUSH1 0x0 PUSH1 0x20 DUP3 DUP5 SUB SLT ISZERO PUSH2 0x5E3 JUMPI PUSH1 0x0 DUP1 REVERT JUMPDEST DUP2 CALLDATALOAD PUSH2 0x5CA DUP2 PUSH2 0x595 JUMP INVALID 0xC5 CALL PUSH16 0xFCC639FA48A6947836D9850F5047985 0x23 0xBF DUP13 SWAP11 GASPRICE DUP8 0xD5 DUP8 PUSH13 0xF622BCF7A26469706673582212 KECCAK256 DUP13 PUSH19 0xB87057AE8005E69933268B47CA1CF329950DA4 GT DUP10 ISZERO DUP8 0x5D SWAP13 0x5C SWAP8 DUP2 0xAE 0xF8 PUSH5 0x736F6C6343 STOP ADDMOD GT STOP CALLER 0xC5 CALL PUSH16 0xFCC639FA48A6947836D9850F5047985 0x23 0xBF DUP13 SWAP11 GASPRICE DUP8 0xD5 DUP8 PUSH13 0xF622BCF7000000000000000000 "},"methodIdentifiers":{"getImplementationAuthority()":"2d5f1187","setImplementationAuthority(address)":"92dd9d65"}},"userdoc":{"events":{"ImplementationAuthoritySet(address)":{"notice":"events"}},"kind":"user","methods":{},"version":1}}}}